:100000004BC051C131C156C096C054C053C052C03C
:1000100051C050C04FC04EC04DC04CC04BC04AC074
:1000200049C048C047C046C045C02C20534C4F571C
:10003000002C2046415354002C20494E5354002C90
:10004000207553762F68722C20002C2043504D2CA5
:1000500020004350532C2000687474703A2F2F6D89
:1000600069676874796F686D2E636F6D2F67656956
:100070006765720A006D69676874796F686D2E63D1
:100080006F6D2047656967657220436F756E746593
:100090007220312E30300A0011241FBECFEDCDBFAB
:1000A00020E0A0E6B0E001C01D92A53BB207E1F759
:1000B00024D185C2A5CFCF93C82F8A3011F48DE00B
:1000C000FADF5D9BFECFCCB9CF910895CF93DF933C
:1000D000CAEAD0E08991882311F0EDDFFBCFDF91F0
:1000E000CF910895CF93DF93EC01FE012491222359
:1000F00021F021968491DFDFF8CFDF91CF91089531
:100100001092A900C49A8091A800811108C080B7FC
:10011000806480BF83B7826083BF80EA86BF8FE13F
:100120009EE40197F1F700C00000C49813BE80B7A9
:100130008F7B80BF08951F920F920FB60F921124EC
:100140002F933F934F935F936F937F938F939F93DF
:10015000EF93FF9321E02093A70080919D00909161
:100160009E009093A5008093A400E0919C00F0E095
:10017000E05AFF4F308180919F009091A000831B37
:1001800091099093A00080939F0080919D00909191
:100190009E008F3F910549F040F08FEF90E09093E3
:1001A0009E0080939D002093A60020919D00309199
:1001B0009E0080919F009091A000820F931F9093CA
:1001C000A00080939F0080919D0090919E00E091FF
:1001D0009C00F0E0E05AFF4F80831092A200109242
:1001E000A10080E0E0919C00E81BE7FDE45C0E2E9E
:1001F000000CFF0BE05AFF4F20814091A10050916D
:10020000A200240F352F311D3093A2002093A100AE
:100210008F5F853039F78091A1009091A2006CE04A
:1002200070E081D19093A2008093A10080919C0006
:100230008F5F80939C0080919C008C3310F0109213
:100240009C0010929E0010929D00FF91EF919F9153
:100250008F917F916F915F914F913F912F910F906F
:100260000FBE0F901F9018951F920F920FB60F920E
:1002700011248F939F938FE493EC0197F1F700C0C3
:100280000000839906C08091A80091E0892780939F
:10029000A8008AB780688ABF9F918F910F900FBE88
:1002A0000F901F9018951F920F920FB60F92112466
:1002B0002F938F939F9380919D0090919E00019624
:1002C00049F080919D0090919E00019690939E0030
:1002D00080939D00969A87EC90E00197F1F700C01B
:1002E0000000969881E08093A9009F918F912F91B3
:1002F0000F900FBE0F901F90189512B883E389B925
:1003000088E18AB985E790E0EDDE88E590E0EADEF5
:1003100084E187BB90E491BB939A85B78A6085BFDF
:100320008BB7806C8BBF82E480BF13BE8CE08EBD28
:1003300022E13AE73BBD2ABD99BF789480E1482E7F
:1003400087E2582E612C712C94E6892E912CA12CD9
:10035000B12CC1E0D2E085B78F7A85BF85B78062C6
:1003600085BF889585B78F7D85BF8091A900811154
:10037000C7DE8091A700882309F465C01092A7000A
:100380008091A600882309F465C06091A400709153
:10039000A50090E080E02CE330E040E050E0D4D0D5
:1003A0006B017C01D093A3001092A60082E590E03F
:1003B00099DE8091A4009091A5004AE06AEA70E07D
:1003C00089D084DE8AE490E08DDE2AE04AEA50E0BB
:1003D000C701B6015ED07ADE8FE390E083DE29E3C9
:1003E00030E040E050E0C701B601AED06B017C01C7
:1003F000A3019201C2D0C9014AE06AEA70E06AD062
:1004000065DE8EE258DEC701B601A5019401B5D0C4
:10041000CA01B901A5019401B0D0162FF72E6A3098
:1004200010F480E348DE4AE06AEA70E0812F9F2DF5
:1004300051D04CDE8091A300823019F588E390E022
:1004400051DE8AE038DE8091A900882309F483CF49
:1004500057DE81CF8091A1009091A200893E934008
:1004600048F0C093A300C090A100D090A200F12C4E
:10047000E12C9CCF1092A300C0909F00D090A000D0
:10048000F6CF813019F481E390E0DACF8AE290E090
:10049000D7CFBB27FA01A62F6217710581059105F9
:1004A000330B30FB66F0AA27660F771F881F991F52
:1004B000AA1FA21710F0A21B63953850A9F7A05DE0
:1004C000AA3308F0A95DA19336F7B111B193108258
:1004D000CA0119C0BB27FB015527AA27880F991FFE
:1004E000AA1FA41710F0A41B83955051B9F7A05D63
:1004F000AA3308F0A95DA193009779F7B111B193E0
:100500001192CB0100C0DC01FC01672F71917723B0
:10051000E1F7329704C07C916D9370836291AE17BE
:10052000BF07C8F308950024552704C0080E591FBB
:10053000880F991F009729F076956795B8F3710594
:10054000B9F7802D952F0895EE27FF27AA27BB27FF
:1005500008C0A20FB31FE41FF51F220F331F441F53
:10056000551F969587957795679598F37040A9F7ED
:10057000009799F7BD01CF010895A1E21A2EAA1B99
:10058000BB1BFD010DC0AA1FBB1FEE1FFF1FA21743
:10059000B307E407F50720F0A21BB30BE40BF50B40
:1005A000661F771F881F991F1A9469F760957095C9
:1005B000809590959B01AC01BD01CF010895F89401
:0205C000FFCF6B
:00000001FF
